{
  "contractName": "CampaignFactory",
  "abi": [
    {
      "constant": true,
      "inputs": [
        {
          "name": "",
          "type": "uint256"
        }
      ],
      "name": "deployedCampaigns",
      "outputs": [
        {
          "name": "",
          "type": "address"
        }
      ],
      "payable": false,
      "stateMutability": "view",
      "type": "function"
    },
    {
      "constant": false,
      "inputs": [
        {
          "name": "mininmumContribution",
          "type": "uint256"
        },
        {
          "name": "title",
          "type": "string"
        }
      ],
      "name": "createCampaign",
      "outputs": [],
      "payable": false,
      "stateMutability": "nonpayable",
      "type": "function"
    },
    {
      "constant": true,
      "inputs": [],
      "name": "getDeployedCampaigns",
      "outputs": [
        {
          "name": "",
          "type": "address[]"
        }
      ],
      "payable": false,
      "stateMutability": "view",
      "type": "function"
    }
  ],
  "bytecode": "0x608060405234801561001057600080fd5b506114ff806100206000396000f3fe608060405260043610610051576000357c010000000000000000000000000000000000000000000000000000000090048063339d50a5146100565780634220d656146100d15780634acb9d4f146101a3575b600080fd5b34801561006257600080fd5b5061008f6004803603602081101561007957600080fd5b810190808035906020019092919050505061020f565b604051808273ffffffffffffffffffffffffffffffffffffffff1673ffffffffffffffffffffffffffffffffffffffff16815260200191505060405180910390f35b3480156100dd57600080fd5b506101a1600480360360408110156100f457600080fd5b81019080803590602001909291908035906020019064010000000081111561011b57600080fd5b82018360208201111561012d57600080fd5b8035906020019184600183028401116401000000008311171561014f57600080fd5b91908080601f016020809104026020016040519081016040528093929190818152602001838380828437600081840152601f19601f82011690508083019250505050505050919291929050505061024d565b005b3480156101af57600080fd5b506101b861038d565b6040518080602001828103825283818151815260200191508051906020019060200280838360005b838110156101fb5780820151818401526020810190506101e0565b505050509050019250505060405180910390f35b60008181548110151561021e57fe5b906000526020600020016000915054906101000a900473ffffffffffffffffffffffffffffffffffffffff1681565b600082338361025a61041b565b808481526020018373ffffffffffffffffffffffffffffffffffffffff1673ffffffffffffffffffffffffffffffffffffffff16815260200180602001828103825283818151815260200191508051906020019080838360005b838110156102cf5780820151818401526020810190506102b4565b50505050905090810190601f1680156102fc5780820380516001836020036101000a031916815260200191505b50945050505050604051809103906000f08015801561031f573d6000803e3d6000fd5b50905060008190806001815401808255809150509060018203906000526020600020016000909192909190916101000a81548173ffffffffffffffffffffffffffffffffffffffff021916908373ffffffffffffffffffffffffffffffffffffffff16021790555050505050565b6060600080548060200260200160405190810160405280929190818152602001828054801561041157602002820191906000526020600020905b8160009054906101000a900473ffffffffffffffffffffffffffffffffffffffff1673ffffffffffffffffffffffffffffffffffffffff16815260200190600101908083116103c7575b5050505050905090565b6040516110a88061042c8339019056fe60806040523480156200001157600080fd5b50604051620010a8380380620010a8833981018060405260608110156200003757600080fd5b81019080805190602001909291908051906020019092919080516401000000008111156200006457600080fd5b828101905060208101848111156200007b57600080fd5b81518560018202830111640100000000821117156200009957600080fd5b5050929190505050816000806101000a81548173ffffffffffffffffffffffffffffffffffffffff021916908373ffffffffffffffffffffffffffffffffffffffff160217905550826001819055508060029080519060200190620001009291906200010a565b50505050620001b9565b828054600181600116156101000203166002900490600052602060002090601f016020900481019282601f106200014d57805160ff19168380011785556200017e565b828001600101855582156200017e579182015b828111156200017d57825182559160200191906001019062000160565b5b5090506200018d919062000191565b5090565b620001b691905b80821115620001b257600081600090555060010162000198565b5090565b90565b610edf80620001c96000396000f3fe6080604052600436106100a9576000357c01000000000000000000000000000000000000000000000000000000009004806303441006146100ae5780630c611f24146100e95780633410452a146101c8578063481c6a75146101f35780634a79d50c1461024a57806381d12c58146102da57806382fde093146103da5780638a9cfd5514610405578063c17def6a146104f7578063d7bb99ba14610522578063d7d1bbdb1461052c575b600080fd5b3480156100ba57600080fd5b506100e7600480360360208110156100d157600080fd5b8101908080359060200190929190505050610567565b005b3480156100f557600080fd5b506100fe61071b565b604051808781526020018681526020018581526020018481526020018373ffffffffffffffffffffffffffffffffffffffff1673ffffffffffffffffffffffffffffffffffffffff16815260200180602001828103825283818151815260200191508051906020019080838360005b8381101561018857808201518184015260208101905061016d565b50505050905090810190601f1680156101b55780820380516001836020036101000a031916815260200191505b5097505050505050505060405180910390f35b3480156101d457600080fd5b506101dd61081d565b6040518082815260200191505060405180910390f35b3480156101ff57600080fd5b5061020861082a565b604051808273ffffffffffffffffffffffffffffffffffffffff1673ffffffffffffffffffffffffffffffffffffffff16815260200191505060405180910390f35b34801561025657600080fd5b5061025f61084f565b6040518080602001828103825283818151815260200191508051906020019080838360005b8381101561029f578082015181840152602081019050610284565b50505050905090810190601f1680156102cc5780820380516001836020036101000a031916815260200191505b509250505060405180910390f35b3480156102e657600080fd5b50610313600480360360208110156102fd57600080fd5b81019080803590602001909291905050506108ed565b60405180806020018681526020018573ffffffffffffffffffffffffffffffffffffffff1673ffffffffffffffffffffffffffffffffffffffff16815260200184151515158152602001838152602001828103825287818151815260200191508051906020019080838360005b8381101561039b578082015181840152602081019050610380565b50505050905090810190601f1680156103c85780820380516001836020036101000a031916815260200191505b50965050505050505060405180910390f35b3480156103e657600080fd5b506103ef6109f7565b6040518082815260200191505060405180910390f35b34801561041157600080fd5b506104f56004803603606081101561042857600080fd5b810190808035906020019064010000000081111561044557600080fd5b82018360208201111561045757600080fd5b8035906020019184600183028401116401000000008311171561047957600080fd5b91908080601f016020809104026020016040519081016040528093929190818152602001838380828437600081840152601f19601f82011690508083019250505050505050919291929080359060200190929190803573ffffffffffffffffffffffffffffffffffffffff1690602001909291905050506109fd565b005b34801561050357600080fd5b5061050c610b73565b6040518082815260200191505060405180910390f35b61052a610b79565b005b34801561053857600080fd5b506105656004803603602081101561054f57600080fd5b8101908080359060200190929190505050610c4a565b005b6000809054906101000a900473ffffffffffffffffffffffffffffffffffffffff1673ffffffffffffffffffffffffffffffffffffffff163373ffffffffffffffffffffffffffffffffffffffff161415156105c257600080fd5b6003818154811015156105d157fe5b906000526020600020906005020160020160149054906101000a900460ff161515156105fc57600080fd5b600260055481151561060a57fe5b0460038281548110151561061a57fe5b90600052602060002090600502016003015411151561063857600080fd5b60038181548110151561064757fe5b906000526020600020906005020160020160009054906101000a900473ffffffffffffffffffffffffffffffffffffffff1673ffffffffffffffffffffffffffffffffffffffff166108fc6003838154811015156106a157fe5b9060005260206000209060050201600101549081150290604051600060405180830381858888f193505050501580156106de573d6000803e3d6000fd5b5060016003828154811015156106f057fe5b906000526020600020906005020160020160146101000a81548160ff02191690831515021790555050565b600080600080600060606001543073ffffffffffffffffffffffffffffffffffffffff16316005546003805490506000809054906101000a900473ffffffffffffffffffffffffffffffffffffffff166002808054600181600116156101000203166002900480601f0160208091040260200160405190810160405280929190818152602001828054600181600116156101000203166002900480156108025780601f106107d757610100808354040283529160200191610802565b820191906000526020600020905b8154815290600101906020018083116107e557829003601f168201915b50505050509050955095509550955095509550909192939495565b6000600380549050905090565b6000809054906101000a900473ffffffffffffffffffffffffffffffffffffffff1681565b60028054600181600116156101000203166002900480601f0160208091040260200160405190810160405280929190818152602001828054600181600116156101000203166002900480156108e55780601f106108ba576101008083540402835291602001916108e5565b820191906000526020600020905b8154815290600101906020018083116108c857829003601f168201915b505050505081565b6003818154811015156108fc57fe5b9060005260206000209060050201600091509050806000018054600181600116156101000203166002900480601f0160208091040260200160405190810160405280929190818152602001828054600181600116156101000203166002900480156109a85780601f1061097d576101008083540402835291602001916109a8565b820191906000526020600020905b81548152906001019060200180831161098b57829003601f168201915b5050505050908060010154908060020160009054906101000a900473ffffffffffffffffffffffffffffffffffffffff16908060020160149054906101000a900460ff16908060030154905085565b60055481565b6000809054906101000a900473ffffffffffffffffffffffffffffffffffffffff1673ffffffffffffffffffffffffffffffffffffffff163373ffffffffffffffffffffffffffffffffffffffff16141515610a5857600080fd5b610a60610dc6565b60a0604051908101604052808581526020018481526020018373ffffffffffffffffffffffffffffffffffffffff16815260200160001515815260200160008152509050600381908060018154018082558091505090600182039060005260206000209060050201600090919290919091506000820151816000019080519060200190610aee929190610e0e565b506020820151816001015560408201518160020160006101000a81548173ffffffffffffffffffffffffffffffffffffffff021916908373ffffffffffffffffffffffffffffffffffffffff16021790555060608201518160020160146101000a81548160ff0219169083151502179055506080820151816003015550505050505050565b60015481565b6001543410151515610b8a57600080fd5b600460003373ffffffffffffffffffffffffffffffffffffffff1673ffffffffffffffffffffffffffffffffffffffff16815260200190815260200160002060009054906101000a900460ff161515610bf0576005600081548092919060010191905055505b6001600460003373ffffffffffffffffffffffffffffffffffffffff1673ffffffffffffffffffffffffffffffffffffffff16815260200190815260200160002060006101000a81548160ff021916908315150217905550565b600460003373ffffffffffffffffffffffffffffffffffffffff1673ffffffffffffffffffffffffffffffffffffffff16815260200190815260200160002060009054906101000a900460ff161515610ca257600080fd5b60001515600382815481101515610cb557fe5b906000526020600020906005020160040160003373ffffffffffffffffffffffffffffffffffffffff1673ffffffffffffffffffffffffffffffffffffffff16815260200190815260200160002060009054906101000a900460ff161515141515610d1f57600080fd5b6001600382815481101515610d3057fe5b906000526020600020906005020160040160003373ffffffffffffffffffffffffffffffffffffffff1673ffffffffffffffffffffffffffffffffffffffff16815260200190815260200160002060006101000a81548160ff021916908315150217905550600381815481101515610da457fe5b9060005260206000209060050201600301600081546001019190508190555050565b60a0604051908101604052806060815260200160008152602001600073ffffffffffffffffffffffffffffffffffffffff168152602001600015158152602001600081525090565b828054600181600116156101000203166002900490600052602060002090601f016020900481019282601f10610e4f57805160ff1916838001178555610e7d565b82800160010185558215610e7d579182015b82811115610e7c578251825591602001919060010190610e61565b5b509050610e8a9190610e8e565b5090565b610eb091905b80821115610eac576000816000905550600101610e94565b5090565b9056fea165627a7a723058200fe2141f477c5e7f6352298d78b66e8ccb845c4e794e41b1130fbe4f07e19e920029a165627a7a72305820246e521dafc7fbcfcd0ee5b0cf87ec610639ecdd8e4c6ff9197ac97c661e0d470029",
  "source": "// SPDX-License-Identifier: MIT\npragma solidity >=0.5.0 <0.7.0;\n\ncontract CampaignFactory{\n    address[] public deployedCampaigns;\n    \n    function createCampaign(uint mininmumContribution,string memory title) public{\n        address newCampaign = address(new Campaign(mininmumContribution,msg.sender,title));\n        deployedCampaigns.push(newCampaign);\n    }\n    \n    function getDeployedCampaigns() public view returns(address[] memory){\n        return deployedCampaigns;\n    }\n}\n\ncontract Campaign{\n    \n    address public manager;\n    uint public mininmumContribution;\n    string public title;\n    \n    struct Request{\n        string description;\n        uint value;\n        address payable recipient;\n        bool completed;\n        uint approvalCount;\n        mapping(address=>bool) approvals;\n    }\n    Request[] public requests;\n    \n    mapping(address=>bool) approvers;\n    uint public approversCount;\n    \n    constructor(uint minAmt,address creator, string memory text) public{\n        manager = creator;\n        mininmumContribution = minAmt;\n        title = text;\n    }\n    \n    modifier isContributor() {\n        require(msg.value>=mininmumContribution);\n        _;\n    }\n    \n    function contribute() public payable isContributor(){\n        if(!approvers[msg.sender])\n            approversCount++;\n        approvers[msg.sender] = true;\n    }\n    \n    modifier isManager(){\n        require(msg.sender == manager);\n        _;\n    }\n    \n    function createRequest(string memory desc,uint val,address payable rec) public isManager(){\n        Request memory request = Request({\n            description: desc,\n            value: val,\n            recipient: rec,\n            completed: false,\n            approvalCount: 0\n        });\n        requests.push(request); \n    }\n    \n    function approveRequest(uint ind) public{\n        require(approvers[msg.sender]);\n        require(requests[ind].approvals[msg.sender] == false);\n        requests[ind].approvals[msg.sender] = true;\n        ++requests[ind].approvalCount;\n    }\n    \n    function finalizeRequest(uint ind) public isManager{\n        require(!requests[ind].completed);\n        require(requests[ind].approvalCount > (approversCount/2));\n        requests[ind].recipient.transfer(requests[ind].value);\n        requests[ind].completed = true;\n    }\n    \n    function getCampaignDetails() public view returns(uint,uint,uint,uint,address,string memory){\n        return (\n            mininmumContribution,\n            address(this).balance,\n            approversCount,\n            requests.length,\n            manager,\n            title\n        );\n    }\n    \n    function getRequestsCount() public view returns (uint){\n        return (requests.length);\n    }\n}\n",
  "sourcePath": "/home/apleio/hello_contract-truffle/contracts/Campaign.sol",
  "compiler": {
    "name": "solc",
    "version": "0.5.1+commit.c8a2cb62.Emscripten.clang"
  },
  "schemaVersion": "3.3.4",
  "updatedAt": "2021-03-14T10:51:42.102Z",
  "devdoc": {
    "methods": {}
  },
  "userdoc": {
    "methods": {}
  }
}